:1000000009C016C015C014C013C012C011C010C062
:100010000FC00EC011241FBECFE9CDBF10E0A0E677
:10002000B0E001C01D92A836B107E1F702D0BAC115
:10003000E7CF2F923F924F925F926F927F928F9273
:100040009F92AF92BF92CF92DF92EF92FF920F9367
:100050001F93CF93DF9387B3836287BB87B3837E7E
:1000600087BB86B1866886B9479A84B38C6084BBA7
:10007000C098C19AA8952DE088E190E00FB6F89459
:10008000A89581BD0FBE21BD40E574EA272E78E317
:10009000372E6CEB662E64E3762E58EC452E52E339
:1000A000552E34EDA32E30E3B32E20E1822E27E22D
:1000B000922E98E8E92E93E1F92E88EEC82E83E07F
:1000C000D82EC4EFD1E000E510E0A0EFB0E0A89595
:1000D00086B390E09C012071307084FF3AC02031DB
:1000E0003105A9F780916200882389F7C098C198EB
:1000F00017B83D9A80E18A95F1F787B1836087B997
:10010000369A3699FECF85B18093610080E28A9558
:10011000F1F717B887B1806687B980E38A95F1F760
:10012000389A369A3699FECF85B180936000842F35
:100130008A95F1F780916100883528F08091600000
:10014000853608F4C4CF21E020936200C19AC59A95
:10015000BECF80916200813011F4109262008091D4
:10016000640090916500892B09F0E7C0C09817B82A
:100170003D9A842F8A95F1F787B1836087B9369AC3
:100180003699FECF85B18093610080EA8A95F1F7B8
:1001900080916100863418F410926300C59A8091B2
:1001A00061008B3420F031E030936300C59880917A
:1001B0006300813009F0C1C0C09A17B887B180666A
:1001C00087B980E38A95F1F7389A369A3699FECF47
:1001D00085B180936000842F8A95F1F7809160004B
:1001E000803568F01092670010926600C098C59A3A
:1001F00088EB9BE0FD013197F1F70197D9F78091EA
:1002000060008035B0F4809160008F3190F0809173
:100210006100843770F4809160009801281B3109D7
:10022000C9016CE271E0ACD09093670080936600E6
:10023000C19A809160008F3108F07FC08091610089
:10024000873720F01092670010926600809161005D
:10025000863720F0D0936700C093660080916100DC
:10026000853720F0D0926700C092660080916100CF
:10027000843721F4F0926700E0926600809161007B
:10028000833721F49092670080926600809161002C
:10029000823721F4B0926700A092660080916100DD
:1002A000813721F45092670040926600809161008E
:1002B000803721F47092670060926600809161003F
:1002C0008F3631F480EB96E390936700809366005D
:1002D000809161008E3621F4309267002092660092
:1002E000809161008D3631F428E039E33093670066
:1002F00020936600809161008C3631F48CE699E39E
:100300009093670080936600809161008B3631F492
:1003100020ED39E3309367002093660080916100FF
:100320008B3650F480916100813A30F487E99AE38A
:100330009093670080936600C19A20916400309189
:10034000650080916600909167002817390709F4CD
:10035000C09880916400909165000196909365002B
:1003600080936400809164009091650088599A435D
:1003700008F4ADCE1092650010926400C098A7CE2C
:100380005527002480FF02C0060E571F660F771FF7
:100390006115710521F096958795009799F7952F2E
:0803A000802D0895F894FFCFB1
:00000001FF
