:1000000009C00EC00DC00CC00BC00AC009C008C09A
:1000100007C006C011241FBECFE9CDBF09D025C13E
:10002000EFCFE199FECF8EBB6DBBE29AE19A0895C6
:10003000AF92BF92CF92DF92EF92FF920F931F93F6
:10004000CF93DF9387B3836287BB87B3837E87BBFE
:1000500088B3836088BB86B1866886B9479A84B3C3
:100060008C6084BBC098C19AA8952DE088E190E08F
:100070000FB6F894A89581BD0FBE21BD40E0B0E059
:10008000C0E0D0E020E030E062E4B62E55E8A52ED6
:100090000DE01AE190E5E92EF12C88ECC82ED12C68
:1000A000A895209709F08EC0B4998CC0C098C19AC9
:1000B00017B83D9A8B2D8A95F1F787B1836087B980
:1000C000369A3699FECF45B18A2D8A95F1F7463496
:1000D00010F4C59AB0E04B3410F0C598B1E0C09A66
:1000E00017B887B1806687B9802F8A95F1F7389A5B
:1000F000369A3699FECFA5B1812F8A95F1F7A035B2
:1001000058F0C098C59A88EB9BE0F6013197F1F75B
:100110000197D9F720E030E08A2F8F51813358F4CE
:10012000B13049F4443738F4C7018A1B91096CE2B5
:1001300071E089D09C01AF3108F043C0B13009F0C3
:1001400040C0473710F020E030E0463710F024EF91
:1001500031E0453710F028EE33E0443709F46AC047
:10016000433719F420E137E22CC0423719F424ED6B
:1001700030E327C0413709F460C0403719F42CEB55
:1001800034E31FC04F3619F420EB36E31AC04E3665
:1001900009F456C04D3619F428E039E312C04C3644
:1001A00021F440E02CE639E30DC04B3621F440E069
:1001B00020ED39E307C04B3620F440E027E93AE36D
:1001C00001C040E0B49B28C0442331F5C198C098D9
:1001D00017B83D9A802F8A95F1F787B1836087B968
:1001E000369A3699FECF55B1812F8A95F1F717B817
:1001F00087B1806687B9802F8A95F1F7389A369A49
:100200003699FECF95B1812F8A95F1F7583510F0C8
:10021000913510F0C19A41E0C217D30709F4C09894
:1002200021968AE3C939D80709F03ACFC098C0E0CF
:10023000D0E036CF28E833E1C4CF28EC32E3C1CF99
:1002400024EA38E3BECF5527002480FF02C0060E03
:10025000571F660F771F6115710521F096958795D9
:0E026000009799F7952F802D0895F894FFCF01
:00000001FF
